:020000041000EA
:1000000000B5324B212058609868022188439860DF
:10001000D860186158612E4B002199600221596106
:100020000121F02299502B49196001219960352056
:1000300000F044F80222904214D00621196600F024
:1000400034F8196E01211966002018661A6600F04E
:100050002CF8196E196E196E052000F02FF8012189
:100060000842F9D1002199601B49196000215960AB
:100070001A491B48016001219960EB211966A021F2
:10008000196600F012F800219960164914480160C1
:100090000121996001BC002800D000471248134993
:1000A000086003C880F30888084703B5996A0420EC
:1000B0000142FBD001200142F8D103BD02B5186610
:1000C0001866FFF7F2FF186E186E02BD00000240BE
:1000D000000000180000070000035F00212200005C
:1000E000F4000018222000A00001001008ED00E03C
:1000F00000000000000000000000000074B24E7A12
:1001000000200420F7010010C3010010C5010010F9
:10011000C1010010C1010010C1010010C101001097
:10012000C1010010C1010010C1010010C701001081
:10013000C1010010C1010010C9010010CB01001065
:10014000CD010010CD010010CD010010CD01001037
:10015000CD010010CD010010CD010010CD01001027
:10016000CD010010CD010010CD010010CD01001017
:10017000CD010010CD010010CD010010CD01001007
:10018000CD010010CD010010CD010010CD010010F7
:10019000CD010010CD010010CD010010CD010010E7
:1001A000CD010010CD010010CD010010CD010010D7
:1001B000CD010010CD010010CD010010CD010010C7
:1001C00000BE00BE00BE00BE00BE00BEEFF3058054
:1001D000103800BEF2EB8871D8700010F470001077
:1001E0003402001090A31AE700201F49086006C8D7
:1001F00081F3088810471D48006800282FD10DA4FE
:100200000ECC002902D000F012F8F9E71849194A7B
:10021000002000E001C19142FCD1174988471749ED
:1002200088471749884700BEFDE701C901C29A42C5
:10023000FBD37047F4700010C0000020F0090020CC
:10024000247A00100000042000000420247A00100A
:10025000001004200010042000000000704709482E
:1002600003F00CFB0047000008ED00E0000000D0A8
:10027000F009002068110020992500107507001072
:10028000592500105756000006005250ABB360537A
:10029000D86C001006005250861C0302E86C001057
:1002A000060052505422A29DF06C001005005250DE
:1002B000DE65F468247A0010F8B5C04606480749A0
:1002C000091A8B10C90FC91810B5491003D0044B77
:1002D000002B00D0984710BDF0090020F009002045
:1002E00000000000054B10B5002B03D00449054861
:1002F00000E000BFFFF7E2FF10BDC04600000000B5
:10030000F00D0020005C0010020900010243D2B28F
:10031000911033230B40920033218A4352B213438E
:10032000DBB25A10552010405B00552293435BB25C
:100330001843C0B27047000010B5002406E0064B19
:10034000185DFFF7E1FF054B1855013494235B005E
:100350009C42F4D310BDC046105E0010200E002059
:10036000F8B504000E0017001D001D4B1B78002B74
:100370001DD0782E33DC182F31DCFB1707221A40F2
:10038000D219D210174B595D03230B40022B11D009
:100390002900CBB218004138C0B219280DD9303B22
:1003A000DBB2092B10D8FF250D40153D08E0FFF703
:1003B000C3FFDEE729002039EBE7FF250D40403D74
:1003C000D2019619002208E00025F9E7EB009B18FE
:1003D0000348C35CA35501320136072AF6DDF8BD98
:1003E000200E0020D56F0010F8B507000C00160095
:1003F0001D0078290DDC182A08DD0AE001353200DD
:1004000021003800FFF7ACFF083424B22B78002B12
:10041000F4D1F8BD70B504000D0000F06BFC0123B1
:10042000A340002D03D0D0221206536270BDD0220B
:1004300012069362FAE7D0231B06802252029A61C9
:10044000802212029A618022D2019A618022920156
:100450009A61704770B505000C00002803DBFFF7B8
:10046000EAFF00261EE0FFF7E6FF6D4260E0D022C3
:10047000120680214902916126E0D02212068021D5
:100480000902916128E0D02212068021C901916100
:100490002AE0D0231B06802292019A61012001F0FC
:1004A00096FB0136AE426EDAF217520FB1180723EF
:1004B0000B409B1A1B01E3181A68002AD7D0D022E0
:1004C00012068021490251615A68002AD5D0D022F3
:1004D00012068021090251619A68002AD3D0D022E5
:1004E00012068021C9015161DB68002BD1D0D023D5
:1004F0001B06802292015A61D0E7D0221206802189
:100500004902916126E0D022120680210902916100
:1005100028E0D02212068021C90191612AE0D0236F
:100520001B06802292019A61012001F050FB013DDF
:10053000002D28DDEA17520FA91807230B409B1A3C
:100540001B01E3181A68002AD7D0D0221206802196
:10055000490251615A68002AD5D0D0221206802162
:10056000090251619A68002AD3D0D0221206802154
:10057000C9015161DB68002BD1D0D0231B0680223A
:1005800092015A61D0E770BD70B50500002409E002
:10059000064B186840420649FFF75CFF012001F056
:1005A00016FB0134AC42F3DB70BDC046F8030020FB
:1005B0007803002070B50500002408E00549064BCB
:1005C0001868FFF747FF012001F001FB0134AC423E
:1005D000F4DB70BD78030020F80300204278037834
:1005E000D21A0132C37881785B1A013353434360D6
:1005F0007047000000B585B080236A4613735073BE
:10060000044800230093023303AA3C2104F034FC85
:1006100005B000BD9004002070B506000D00002458
:1006200003E0305DFFF7E6FF0134AC42F9DB70BD5B
:10063000F0B583B006000D004F1C380004F008F937
:1006400004004023037001302A00310004F01CF93B
:100650000648002300933B0022003C2104F00CFCE0
:10066000200004F0FFF803B0F0BDC0469004002065
:1006700070B588B001A8084A1300060032CB32C614
:100680001A00330032CA32C312881A801A21FFF7C7
:10069000C3FF08B070BDC046385F001030B583B0EE
:1006A00005000C0021236A4613700B7853704B78B9
:1006B00093702223D3708B781371CB7853710621FA
:1006C0006846FFF7A9FF61682800FFF7B1FF03B094
:1006D00030BD000010B50C480C4904F0A1FB03210B
:1006E000142000F0D5FA0321152000F0D1FA0022E1
:1006F0000121142000F0E4FA00220121152000F06D
:10070000DFFAFFF7B5FF10BD90040020801A060045
:1007100030B5002300E001339C0002591278002A12
:1007200006D0044DAA5C9207F5D0034A0A51F2E7BD
:1007300030BDC046D56F0010005C001070B50023BE
:1007400000E001339D0044592478002C05D0167830
:10075000A642F6D14C592670F3E770BD10B5096872
:10076000006805F067F8002801D1013010BD0020B5
:10077000FCE70000F0B5C64600B5BC4CA544052119
:10078000BB4800F045FA0400FFF7A4FF631C00D14A
:1007900060E10822002182A804F070F87F236A46F5
:1007A000B449521813707C3B6A46B349521813700F
:1007B00082A8FFF713FF80229200002102A804F014
:1007C0005DF882A902A8FFF769FF01211020FFF759
:1007D00021FE01210F20FFF71DFE01210E20FFF752
:1007E00019FE01210D20FFF715FE642001F0EFF93D
:1007F000A24B01930826052503E0A148390004F027
:10080000BDF99B4B5A682100083101238B401342EC
:1008100017D1230008339B00954A9F58994A6A4490
:1008200099496944380000F01BFA0028E5D0954B3F
:100830006B441A78944B6B441978944804F09EF9F1
:10084000DFE782A902A8FFF729FF914B00220521CB
:1008500002A8FFF7C9FD8B4B6B441B78162B07D002
:10086000083BDAB2562A0AD893008A4AD3589F46E0
:10087000894B32B229B202A8FFF7B6FD0835814B89
:100880006B4400221A70772DBBD908360525B8E7CE
:10089000824D2B000022002102A8FFF7A5FD2B00AE
:1008A0000822052102A8FFF79FFD2B001022052139
:1008B00002A8FFF799FD85A901A8FFF729FF642089
:1008C00001F085F908260525D9E7744B0822052192
:1008D00002A8FFF789FD724B0822052102A8FFF745
:1008E00083FD0120FFF766FE08260525C7E76B4B51
:1008F0000822052102A8FFF777FD6A4B082205218F
:1009000002A8FFF771FD0120FFF73EFE082605252E
:10091000B5E7614B32B229B202A8FFF765FD083591
:10092000ADE75D4B32B229B202A8FFF75DFD083595
:100930005D4A85A901A8FFF701FFA0E7564B32B237
:1009400029B202A8FFF750FD0835584A85A901A829
:10095000FFF7F4FE93E7504B32B229B202A8FFF73B
:1009600043FD08358BE74C4B32B229B202A8FFF7A2
:100970003BFD083583E7484B32B229B202A8FFF7A6
:1009800033FD08357BE7444B32B229B202A8FFF7AA
:100990002BFD083573E7404B32B229B202A8FFF7AE
:1009A00023FD08356BE73C4B32B229B202A8FFF7B2
:1009B0001BFD083563E785A901A8FFF7CFFE0128D5
:1009C00015D0364B0822052102A8FFF70DFD384B44
:1009D0000822052102A8FFF707FD85A901A8FFF756
:1009E00097FE642001F0F3F80826052547E72B4B16
:1009F0000822052102A8FFF7F7FC2E4B082205214B
:100A000002A8FFF7F1FC0120FFF7D4FD2A4801F00E
:100A1000DEF80120FFF7B8FDC82001F0D8F8DCE7C8
:100A2000BB00862292009B186B44244A9446634480
:100A30001B68424612B2052102A8FFF7D5FC082325
:100A40009C46E0440137002FEAD018E7002708232E
:100A50009846F8E71A4804F061F8012040428623DE
:100A60009B009D4480BCB846F0BDC046E8FDFFFF3A
:100A700000002050090200000B0200001C5C001066
:100A8000385C00101202000013020000205C00100D
:100A90004C5C0010B45C0010005C00105C5C00104A
:100AA000705C0010805C0010C06E0010905C001044
:100AB000A45C0010945C0010B80B0000ECFDFFFF7C
:100AC000045C001070B506000D1C081C03F010FE3D
:100AD00084B2002C12D0200003F0E2FD011C281C7F
:100AE00003F0B5FD8721C90503F0D1FD03F000FE39
:100AF000C3B21B0224041C43346070BD0023F8E71A
:100B000010B504001022002103F0B8FE80235B0220
:100B10002360F8235B0263608023DB02A360C023B1
:100B20001B03A360200010BD70B504000D00FFF78B
:100B3000E7FF2A000832636804490B40ED012B43AC
:100B4000120313436360200070BDC0467F00FEFFA8
:100B5000F0B587B005000E0017001C00254B984229
:100B600045D00721200000F093F8002300930133C3
:100B700022003100280004F087FA390002A8FFF7AC
:100B8000D3FF04991C4B0B40A022D20213430493C1
:100B90001A4B19400A4380231B0613430493059BF9
:100BA000174A1340E20313430593039B154A13406E
:100BB000240623430393052001F0FEFB03F08AF98A
:100BC000114A124B03F0FBF803F0D0F9011C02A804
:100BD000FFF778FF02AB3A003100280004F0A6FAD4
:100BE0002B680122B24013432B6007B0F0BD0621F1
:100BF000B8E7C04600002050FFFF0AFEFFFF0A3E94
:100C0000FF7FF0FFFFFFFFE0C7711CC7715CD140A1
:100C1000F8B504000E0000220021300000F050F86A
:100C20000E49200004F000FA002813D00B492000E0
:100C300004F00EFA07000121200004F0D7F90500A6
:100C4000431C05D033003A0001002000FFF780FF6D
:100C50002800F8BD01256D42FAE7C046545F001038
:100C600030B5C4B203041B0EDB43DBB2A3420AD18E
:100C700003021D0E000EC043C0B2A84205D10C7085
:100C80001570012000E0002030BD0020FCE70000CE
:100C900010B58300084A944663441A6840246240B1
:100CA000803414408022520113431C60C000034B67
:100CB0009C466044416010BD04C0014000400140BA
:100CC00080000B4B9C46604400290DD00823002A6D
:100CD0000CD004221343026853400C221A40802394
:100CE0005B0103431A6070470023F0E70022F1E73D
:100CF00004C0014010B501238340D0221206936244
:100D000093610521FFF7C4FF10BD0000034B1B6872
:100D100002201840431E9841C0B2704700C00640F0
:100D2000EFF3108072B6034B1B68002BFBD0BFF3B0
:100D30005F8F70472C0100D0BFF35F8F024B002202
:100D40001A6080F3108870472C0100D0F8B50600B7
:100D50000C001500FFF7E4FFE308F718F15C072229
:100D60002240012393400B4205D1DBB20B433B7081
:100D7000FFF7E2FFF8BD2100280001F089FCF0B583
:100D800083B00600019114001F00FFF7C9FF00E0C7
:100D90000134BC420CD8E308F518F35C072121406C
:100DA00001228A401A42F3D1D2B21A432A7001E0DA
:100DB00001246442FFF7C0FF002C02DB200003B0D7
:100DC000F0BD019B002BF9D0089801F061FC0000F8
:100DD000002307E0054A9A189200BFF35F8F0021B5
:100DE000116001331F2BF5D97047C0464000003415
:100DF000054A1078431CDBB21370172B02D913007D
:100E000010221A707047C046FC030020074B9B68F5
:100E1000103080001950BFF35F8FBFF35F8F044B1A
:100E20000021196082F310887047C04600ED00E091
:100E3000240100D010B50388DA0A1C2A05D15B050D
:100E40005B1502335B00C01810BD034B034A044816
:100E5000B12101F085FBC046705F001008610010F1
:100E6000885F001010B5091A0B1F0A4A88180A4A31
:100E7000904208D8C90706D45B105B055B0D074894
:100E8000184380B210BD064B064A0748A32101F063
:100E900067FBC046FC070000FE0F000000E0FFFFFC
:100EA000C45F0010FC600010885F001010B5091AC4
:100EB00004394A08090B08D14905490D064B0B4373
:100EC0000380064B1343438010BD054B054A06487B
:100ED000AB2101F045FBC04600F0FFFF00F8FFFF2B
:100EE000F45F0010D0600010885F00100123834081
:100EF000034A10681840431E9841C0B27047C0466C
:100F000000E100E0002904D0034B1860034B186097
:100F10007047034B1860FBE780E200E000E100E06F
:100F200080E100E010B5012383401800FFF7EAFFDD
:100F300010BD0000024B9B6810308000C058704705
:100F400000ED00E070B504000D00EFF3108672B6FE
:100F50000C4B1B68002BFBD0BFF35F8F2000FFF70B
:100F6000E9FF094B984201D0A84205D1320029007F
:100F70002000FFF74BFF70BD044B054A0548862152
:100F800001F0EEFA240100D0CD0100100460001041
:100F900018610010885F0010F0B5CE46474680B556
:100FA00083B006000D00EFF3108872B64F4B1B683C
:100FB000002BFBD0BFF35F8F4D4B9A683400103489
:100FC000A300D7584B4B9F4207D0AF4200D18BE0D4
:100FD0000197494BFB1A2F2B09D9424639003000A3
:100FE000FFF714FF03B0C0BCB946B046F0BD3000F7
:100FF000FFF77CFF814600213000FFF793FFBFF32E
:101000005F8FEFF30581002901D08C4211D10123BC
:10101000019C9C430020A368AB4212D00622A2563A
:10102000002A0DDB53009B189B00334A2000D41884
:10103000F1E7324B324A36213248FF3101F090FA63
:101040002000AB4249D106256557002D2BDB2A4BEA
:101050006A00521992009B189A68A260DA79E271CC
:101060009B795BB2A371002B0FDA2748A080224B3B
:101070006A00521992009B18244A117899711570D0
:1010800049463000FFF74EFFA7E76800401980008F
:10109000194BC0180430FFF7CDFE0100231D1800C6
:1010A000FFF7E0FEE2E7002912D100280ED0FF236F
:1010B0008371174B838015490B78A3710E4A154B2A
:1010C000A41A644163431B0D0B70D9E7094FF2E783
:1010D0001149201DFFF7EAFED2E7104B084A6A21AA
:1010E0000848FF3101F03CFA024F76E7240100D0B6
:1010F00000ED00E0CD010010000400203C60001075
:10110000E8600010885F001001BD0000631100203E
:1011100001BDFFFFAAAA00003A0400207060001081
:1011200070B5012202432E4BD31A2F2B28D8EFF390
:101130000583002B2BD0EFF3108C72B62949096878
:101140000029FBD0BFF35F8F254C274905002D1BDD
:101150006D416943090D4CB2244989689B00C95807
:1011600091421BD00021032932D81D4B4A0052184E
:1011700092009B189B795BB2A3421FD00131F2E72A
:101180001B4B1C4AC7211C48490001F0E9F91B4BC5
:10119000184A92211848FF3101F0E2F9134A926887
:1011A0001749D150174B1A7882711C70BFF35F8FAB
:1011B0000C4B00221A608CF3108870BD084B4A005B
:1011C0005518AD005D19FF26AE710F4AAA80E9E7F8
:1011D0000E4B084AD1210848490001F0C1F9C04628
:1011E00000040020240100D0AAAA000000ED00E0C5
:1011F00078600010B4600010885F0010A0600010DC
:10120000CD0100106311002001BDFFFFAC60001094
:101210000022044B02E0044902C30132072AFAD932
:101220007047C04600E400E080808080024B9C460E
:1012300061448900016070474000003410B504002B
:10124000FFF7D6FD01002000FFF7F0FFFF23237119
:10125000BFF35F8F10BD10B50400FFF7C9FD01009B
:101260002000FFF7E3FFFF23237100236371BFF327
:101270005F8F10BD084B5B6A994209D8064A926A93
:10128000824207D2994201D0012002E0002000E012
:10129000002070470120FCE70040054010B5002900
:1012A0000AD003681B7B8B4206D38068054B9C46A3
:1012B00061440901401810BD034B044A04483C2115
:1012C00001F04EF9FFFFFF0FE461001068650010A8
:1012D00008620010F8B504001700FFF7DFFF06688A
:1012E000456839002000FFF7D9FF026843680120F4
:1012F000AB4201D802D00020C0B2F8BDB242FBD848
:10130000F9E7000010B5002B02DB0260436010BD5E
:10131000024B034A03483F2101F022F940620010CA
:10132000346500105C62001010B582B004000498AF
:10133000059912184B41002B09DB6846FFF7E2FFC5
:10134000009A019B22606360200002B010BD012260
:101350005242014BF1E7C046FFFFFF7F10B5002965
:1013600008D0037B8B4205D300684B005B18033B1E
:10137000C01810BD024B034A0348682101F0F0F881
:10138000A062001010650010BC62001010B5437B15
:101390008B4201D1012010BDFFF7E0FF8378002BC5
:1013A00001D10020F7E70120F5E770B50400857B47
:1013B000002D01D1280070BD2900FFF7CFFF437831
:1013C000A373002B00D1E373002383704370037079
:1013D000F0E70000F8B506000C001500FFF7BEFFAF
:1013E0000700002C0DD0002D11D0AC4215D02900E3
:1013F0003000FFF7B3FF84703B78002B13D13D70B2
:10140000F8BD0A4B0A4A0B486F2101F0A9F80A4BB4
:10141000074A0848702101F0A3F8084B044A054820
:10142000712101F09DF843703D70E9E708630010F9
:10143000EC640010BC620010146300102063001004
:1014400070B506000D001400002914D0002A14D035
:10145000436880689847002806D0220029003000A1
:10146000FFF7B8FF280007E02A0021003000FFF74F
:10147000B1FF200000E0100070BD0800FCE7000094
:1014800070B504000D1E0CD0FFF768FF00238370B9
:1014900043700370617B2A002000FFF7D1FF607367
:1014A00070BD034B034A0448A52101F059F8C0461A
:1014B0003863001000650010BC62001070B50400B5
:1014C0000D1E0FD0FFF762FF00280BD1E17B002932
:1014D0000ED1A37B002B03D1E37B002B0DD1A57391
:1014E000E57370BD084B094A0948F62101F038F848
:1014F0002000FFF733FF4570EBE7064B034A044833
:10150000FB2101F02DF8C0463C630010DC640010A4
:10151000BC6200106063001010B5002907D003689A
:101520001B7B8B4203D3C0680139401810BD034BAD
:10153000034A0448412101F013F8C046E461001059
:10154000C86400100862001070B505000C000800A7
:1015500000F098FC0949200000F0D8FBFFF748FC98
:10156000074B9C466044800068602C75D0231B06A6
:101570001B786B75034BA400E55070BD95160010E9
:1015800040000034080E00200A4B1A68EFF3108167
:1015900072B61368002BFCD0BFF35F8F054B1B683E
:1015A000BFF35F8F00221A6081F3108840BF0020D4
:1015B000002170474C11002010B582B0040000F0EB
:1015C00085FB02000B006846FFF79CFE009A019B1A
:1015D00022606360200002B010BD70B584B00400CA
:1015E00016001D0002A8FFF7E7FF029A039B009672
:1015F00001952000FFF798FE200004B070BD0000A8
:10160000F0B583B0070001921D000AAB1C780BAB4C
:101610001E78002C0BD000682100FFF7B7FE0028D1
:1016200009D0194B194A1A48672100F099FF006840
:10163000FFF7BBFE0400002C02D1200003B0F0BD78
:1016400021003800FFF72AFE019B03604560089BDC
:101650008360099BC36038682100FFF711FFA04237
:10166000EBD1387D019A2B0000F098FB051E01D0CC
:10167000002E04D00C9B002BDFD01D70DDE73868F6
:10168000210000F045FDF5E7746300101C650010B3
:1016900008620010F0B5DE4657464E464546E0B5B6
:1016A0008FB00B900021794B8200D458894683E09B
:1016B00029002000FFF7F2FD804602684368921B74
:1016C000BB41002B09DD43461A685B680B9800F0AC
:1016D00065FB0023984600268AE0002B01D1002AF2
:1016E000F1D10021584600F009FD0700A84215D1AC
:1016F00043461A685B680892099343469E68DB6814
:101700009846002E10D029002000FFF705FF03782F
:1017100099461B021F432761002069E05C4B5D4A2C
:101720005D488E2100F01CFF5C4B5A4A5A489221BA
:1017300000F016FF2369002B00D177E0BB4219D1DE
:1017400006980799002342428B4100920193089A20
:10175000099B0CA8FFF7E8FD0C9A0D9B0021049152
:101760000131039102954146019100962000FFF757
:1017700047FF16E04A4B474A4748A12100F0F0FED8
:10178000069A079B002B01D1002A52D1206829001C
:10179000FFF794FE29002000FFF7BEFE0378013317
:1017A0000370002323616268BFF35F8F13608AF3C5
:1017B00010880120002861D00CA8FFF7FDFE0C9EC8
:1017C0000D9F00220023089209936268EFF3108AAC
:1017D00072B61368002BFCD0BFF35F8F23689B4663
:1017E0005D7B002D00D063E7002398460026002093
:1017F0006368BFF35F8F00221A608AF31088002E9F
:10180000D8D04B461F022F4341463800B0470690C0
:1018100007916268EFF3108A72B61368002BFCD050
:10182000BFF35F8F079B002B00DA83E7079B002B3A
:10183000A6DD2369002BA9D0BB4219D10CA8FFF764
:10184000BBFE0C9A0D9B06980799009001910CA87D
:10185000FFF76AFD0C9A0D9B002104910131039161
:1018600002954146019100962000FFF7C9FE98E7D6
:101870000B4B084A0848A42100F072FE0FB0F0BCE0
:10188000BB46B246A946A046F0BDC046080E0020A1
:101890009C6300104C65001008620010B4630010D7
:1018A000C063001010B50C4B5B68002B04D00B48D4
:1018B0000A21FFF7BBFC10BD074C094A2068230032
:1018C000102100F086FB032000F0F4F90321200032
:1018D000FFF73AFEEBE7C046480400204C11002019
:1018E000D512001010B5064B5B68002B01D00448E0
:1018F00010BD044B044A05485E2100F031FEC0468D
:1019000048040020FC630010B0640010086200105E
:10191000F0B5DE4657464E464546E0B58DB006006A
:1019200090461F00169B9A46179B994618AB1B784A
:101930000793272302AA9446634400221A7021E0E9
:1019400001003000FFF7E8FD00783CE00698002B2E
:101950005CD0079B002B59D04946D04704000D00AE
:1019600003000B4359D0002940DB08A8FFF724FEF1
:10197000089A099B0094019508A8FFF7D5FC089BDD
:101980009846099F7268EFF3108B72B6136859423C
:101990004B41D9B20691002BF8D1BFF35F8F2733AB
:1019A00002AA9446634404930023039302934B4694
:1019B00001935346009342463B003000FFF720FE60
:1019C0000400051EBCD17368BFF35F8F002119604E
:1019D0008BF31088002D17D0272302AA9446634466
:1019E0001B78002BB2D100022043B0E700236242F3
:1019F000AB410092019342463B0008A8FFF794FCDC
:101A0000089B9846099FBDE7012040420DB0F0BCFD
:101A1000BB46B246A946A046F0BD0698F6E7F0B52B
:101A2000C64600B584B00500884616001F000AAB04
:101A30001C78FFF757FF0294019700962A0043464F
:101A4000FFF766FF04B080BCB846F0BDF0B5C646EF
:101A500000B505000C1E42D04268EFF3108772B645
:101A60001368002BFCD0BFF35F8FE6B22B6898465B
:101A700031001800FFF78AFC00282AD02B69A34206
:101A800013D0240AE4B231002800FFF745FD0378A3
:101A9000A34211D000206B68BFF35F8F00221A6051
:101AA00087F3108880BCB846F0BD0E4B0E4A2C213F
:101AB0000E48FF3100F054FD3100404600F028FB95
:101AC0000028E8D10A4B084A99210848490000F04B
:101AD00047FD2B69A342DED100232B61DBE7002009
:101AE000E0E7C0462064001098640010086200100F
:101AF0004464001010B50400FFF7F4FE2100FFF766
:101B0000A5FF10BD30B587B004000D00EFF30583CD
:101B1000002B20D106225242D31712196B418B425F
:101B200002D803D1824201D90022002304A8FFF782
:101B3000E9FB02A8FFF740FD02980399049A059B70
:101B4000121A8B41002B0BDC08D02000290000F07A
:101B5000C9F807B030BD144800F09AFD002AF4D04F
:101B6000124A0498059900230093FFF758FF0028B4
:101B700013DAEAE70E4B1A68EFF3108172B61368B6
:101B8000002BFCD0BFF35F8F094B1B68BFF35F8F47
:101B900000221A6081F3108820BF04980599FFF78E
:101BA00069FB0028E6D0D0E74864001089150010D2
:101BB0004C11002000B583B002000B006846FFF70F
:101BC0000CFD00980199FFF79DFF03B000BD10B513
:101BD000FA2292000023002102F01CFDFFF7EAFF29
:101BE00010BD000030B583B005000C00EFF3058395
:101BF000002B0FD10B4A00230093FFF710FF0028A2
:101C00000BDD20BFFFF776FF28002100FFF732FB36
:101C100003B030BDFFF72EFBFAE728002100FFF7E5
:101C200029FBF5E78915001070B5EFF30580103832
:101C3000EFF3108C72B6194B1B68002BFBD0BFF36F
:101C40005F8F01221300834015494B6315490B60D8
:101C5000154909780C00C440224213D0104A546A36
:101C6000124A8500AA58944205D3114AAA580E4C2C
:101C70009943217007E00A4A031D9B009958995027
:101C8000002200E00022BFF35F8F044B00211960A7
:101C90008CF31088002A00D0904770BD280100D036
:101CA000004005403C7005406411002050110020A8
:101CB000680C002010B50100024A034B1800FFF722
:101CC00045F810BD7465001061110020044B5B6A7B
:101CD000034A906A1900536A9942F9D17047C04685
:101CE00000400540084B5B6A01E0074B5B6A8B4292
:101CF000FBD301E0044B5B6A8B4203D1024B9B6A2E
:101D00008342F7D37047C0460040054070B50400D9
:101D10000E00EFF3108572B61B4B1B68002BFBD037
:101D2000BFF35F8F002E1CD02000FFF703F9174B85
:101D300083420BD019002000FFF704F90121200095
:101D4000FFF7F0F80123A340114A1360114BA400E0
:101D5000E650BFF35F8F0C4B00221A6085F31088AA
:101D600070BD0C4BA2000021D1500122A2400A49B3
:101D70000B7893430B7005492000FFF70DF9002104
:101D80002000FFF7CFF8E4E7280100D0291C00105D
:101D900038600540680C002064110020F0B5DE4674
:101DA00000B584B00400150001921E000293FFF7F5
:101DB0008DFF03958E4202D84ED185424CD9EFF368
:101DC000108B72B6274B1B68002BFBD0BFF35F8FC5
:101DD000254A17780125A540EBB23B431370234BEE
:101DE0005D63221D92000199D150214AA100029801
:101DF00088501B6A2B4212D11C4B1B6C2B4208D003
:101E00000020BFF35F8F174B00221A608BF31088FE
:101E100023E0184B184A1948C52100F0A1FBFFF731
:101E200055FF8E4214D802D1039B834210D80E4B2B
:101E30001B78BB420ED00D4B1D625D631F222240FA
:101E4000012393400E4A1360074B1F700120D8E70F
:101E50000020D6E70120D4E7012004B080BCBB46B7
:101E6000F0BDC046280100D06411002000400540AC
:101E70005011002098650010FC650010BC65001032
:101E800080E200E0EFF3108C72B60B4B1B68002B66
:101E9000FBD0BFF35F8F01238340084A13620849D8
:101EA0000A789A430A70BFF35F8F034B00221A60CF
:101EB0008CF310887047C046280100D000400540D0
:101EC0006411002010B5002908D0037B8B4205D394
:101ED00000684B005B18033BC01810BD024B034A5F
:101EE0000348682100F03CFBA0620010046700106A
:101EF000BC620010F8B506000C001500FFF7E2FF09
:101F00000700002C0DD0002D11D0AC4215D02900B7
:101F10003000FFF7D7FF84703B78002B13D13D7062
:101F2000F8BD0A4B0A4A0B486F2100F019FB0A4B17
:101F3000074A0848702100F013FB084B044A054883
:101F4000712100F00DFB43703D70E9E7086300105C
:101F5000F0660010BC6200101463001020630010D3
:101F600070B506000D001400002914D0002A14D00A
:101F7000436880689847002806D022002900300076
:101F8000FFF7B8FF280007E02A0021003000FFF724
:101F9000B1FF200000E0100070BD0800FCE770B544
:101FA00005000023437301338373037BC373012450
:101FB00006E021002800FFF785FF0134E4B24470F9
:101FC000297BA142F5D82800FFF77CFF002343704E
:101FD00070BD10B5017342608360FFF7E0FF10BD74
:101FE000F0B5C64600B505000C1E03D1200080BC2C
:101FF000B846F0BDFFF766FF4678002EF6D03100F8
:102000002800FFF75FFF47780023984643702100C0
:102010002800FFF757FF4346437032002100280095
:10202000FFF79EFF040039002800FFF7D9FF0200E8
:1020300021002800FFF794FF0400D7E7F0B5C6465B
:1020400000B504000D001700002927D0FFF73AFF64
:102050004378002B28D18378002B2BD101782000E6
:10206000FFF7BEFF06008046002F0AD0E17B002963
:1020700026D1A37B002B03D1E37B002B25D1A573B5
:10208000E5734346002B26D129002000FFF71AFFF5
:1020900000234370300080BCB846F0BD114B124A9B
:1020A0001248382100F05CFA114B0F4A0F483A21D0
:1020B00000F056FA0F4B0C4A0C483B2100F050FA46
:1020C0002000FFF7FFFE4570D3E70B4B064A074899
:1020D000422100F045FA31002000FFF7F3FE002313
:1020E0008370D1E718660010DC66001020660010CF
:1020F00058660010806600106063001070B5040020
:102100000A00457B2900FFF799FF6073280070BD26
:1021100070B506000C1E40D0437B8B4207D0FFF702
:10212000D1FE05008178002906D1002036E001218A
:10213000FFF7E4FF012031E03000FFF7C3FE017834
:10214000A1420DD03000FFF7BDFE4178A1420AD078
:102150000029F7D1124B134A13486B3100F000FAF3
:102160006B78037001E06B7843700023AB706B7089
:10217000012221003000FFF761FF0200717B8142E4
:1021800005D03000FFF7ECFE7073012006E0074B2E
:10219000044A0548712100F0E3F9002070BDC046F3
:1021A000AC600010C466001020660010A466001029
:1021B000F8B5DE4657464E464546E0B506000F00E8
:1021C00015000A9A934250D31A0E92461B02984663
:1021D0000A9A00234046514601F0E2FB8146740012
:1021E000A419A4002F4B9C4664446368834200D228
:1021F0006060331FDBB29B46012B3CD9C0239B019F
:102200002343802212011A60274BB200D1580029C3
:1022100007D0586901F086FB013043001B18033BCF
:10222000FDD26D0123685D40E0222A4080235B01DE
:1022300023431A605A46012A28D980239B0123434D
:10224000802212011A604B4663604A4600234046D2
:10225000514601F0A5FB144BB60098510120F0BC8B
:10226000BB46B246A946A046F8BD104B104A1148DD
:10227000332100F075F9012FC0D1C0239B01234306
:1022800003221A60A368DB07FCD5CAE721687940FE
:1022900003220A401A60A3680125BD401D42FAD0FE
:1022A000CBE7C04600800040780D0020106700108A
:1022B000686700102467001030B583B00C2000F070
:1022C00011F9FEF723FD00280DD0002304E02E4A6B
:1022D00099002E4888500133092BF8D92A4B2C4AF3
:1022E0005A6203B030BD2B4B00229A6700F002F90E
:1022F000294B01221A60274B5B6C012BFBD1274B2A
:1023000003221A60234B9B6B012BFBD101330093FB
:102310000433234A0121234800F054F80523009395
:10232000214A0121214800F04DF8214B0093002261
:1023300002210420FFF73CFF1E4D00952B000022D8
:1023400001210520FFF734FF104C009423000022E8
:1023500000210720FFF72CFF00942300002200211A
:102360000820FFF725FF0A4B0093230000220021DD
:102370000920FFF71DFF00952B00002200210620F9
:10238000FFF716FFADE7C046780D0020006CDC02B9
:102390001BB70000008000403CB0004030B000405F
:1023A000002F685900800240008C864700C0024020
:1023B000001BB70040597307014B8000C05870479D
:1023C000780D0020F0B5C64600B504000E001700D9
:1023D0001D00374801F0A6FA8046364BFA18364BF6
:1023E0009A4239D80100380001F09CFA0200103AF4
:1023F00098235B009A4235D86B1E062B38D8069B73
:10240000013B062B34D83F09474537D32D04069BA3
:102410001B031D432368002B36DB284B9C4244D012
:1024200080235B01264A1360264A1360264A92687D
:1024300019009143FAD12660A060221DC0239B01A0
:10244000134321221A602268002AFCDAE560082280
:102450001A6080BCB846F0BD1C4B1D4A1D481121B6
:1024600000F07EF81C4B1A4A1A48192100F078F83F
:102470001A4B174A17481C2100F072F8184B144ADF
:102480001448232100F06CF822683F231340B34224
:10249000C3D1A3681B051B0D8342BED1E368EE22A6
:1024A000D2021340AB42B8D1D3E780239B01B9E7F6
:1024B000001BB70080E84BD380F8A93200C002406F
:1024C00000E0004000F0004000C0004078670010CD
:1024D00098680010D8670010146800103068001069
:1024E0007C68001080239B000343014AD36270473D
:1024F00000800540064BAA2212011A602F22DA60E2
:10250000044B054A1A60024B5B68002BFBDA7047EC
:10251000004002400060024000B0FA0000BEFDE74B
:1025200003000A4A1268002A08D0084A1068C31833
:10253000074A9A4206D3054A13607047034A054981
:102540001160F2E701204042F7E7C046EC0D0020A1
:10255000000004206811002010B5FFF7DFFF000025
:1025600030B583B00D001900002A0BD0074B084C82
:10257000019200932B000200200002F0FFFA0120DC
:10258000FFF7CCFF034B1A00F1E7C046A468001028
:10259000B4680010485C001070B52B4B2B4A1A60D1
:1025A0002B4B2C4A1A602C4B9A682A4B9343FAD136
:1025B0002A4C01E008CC9847294B9C42FAD3FFF7FC
:1025C0007BFE234B274A1A60234B9B68DB43DB01CE
:1025D000FAD1254B40229A675A671A67DA66234C6C
:1025E00009E0234B234A24488721FFF7B9FF200045
:1025F000FEF724FE0834214B9C4209D22368002BAD
:10260000F5D0012BEDD12000FEF725FE0834F2E7CE
:102610001B4DA9681B4CC022200002F035F9AC60AC
:10262000EFF30583002B00D000BEFEF7D1FBFEF7D1
:10263000EFFDFFF737F9144C01E008CC9847134B36
:102640009C42FAD370BDC04600E00040BFCDFBFE07
:1026500000F00040FE7F3C0000C00040D809002090
:10266000E8090020FFFFFF0100F00140D009002031
:10267000E46800105869001004690010D8090020AF
:1026800000ED00E000000020E8090020F009002033
:102690000FB400B583B0084802F040FA049B002B49
:1026A00007D005A90191180002F048FA034802F08A
:1026B00035FA0120FFF732FF446900105469001019
:1026C000704710B5002802D00B684968984710BDC4
:1026D0000100002007E083001B185B00501C08600D
:1026E0001078C01830380A681378303BDBB2092BF9
:1026F000F1D97047F0B5DE4657464E464546E0B53F
:1027000083B093461F000C9B9A460D9C0E9B9946E6
:102710000F9B9B0703D0B8460F00060022E00192F2
:10272000A34688464E46B9460700B44207D2551C18
:102730004B4641462020B84701342A00F5E73D00CA
:102740004F465C46019B9B46B1464646B84637001D
:102750002E0007E0013C551C5346185D43463900E6
:10276000B0472A00002CF5D135003E0047460F9BAC
:102770009B0707D4100003B0F0BCBB46B246A94685
:10278000A046F0BDB0464E46B9462F005D46531BED
:10279000B342EFD2541C4B4641462020B84722009A
:1027A000F5E7F0B5CE46474680B585B094469846E5
:1027B0000C9D0D9C0EAB1B789946109A119B129E96
:1027C000B7071CD4002B0CD0F7070AD54F46002FB3
:1027D00002D10C37374204D0013B02E030272F559D
:1027E0000134944201D21F2CF8D9F70707D59C4237
:1027F00005D21F2C03D830272F550134F5E7F706F3
:1028000012D5770505D4002C03D0944221D09C42E8
:102810001FD00F9A102A32D00F9A022A37D01F2CBD
:102820000AD830222A5501341F2C05D84A46002ADE
:1028300033D02D222A55013403960293019400953A
:1028400043466246FFF756FF05B0C0BCB946B046E6
:10285000F0BD621E012C10D00F9F102F0BD0140062
:102860000F9A102AD8D1B206D6D51F2CD4D8582208
:102870002A550134D3E7023CCBE71400C9E7B2067E
:10288000EED41F2CECD878222A550134C7E71F2C30
:10289000D2D860322A550134C1E7720703D52B2202
:1028A0002A550134C8E73207C6D520222A550134FB
:1028B000C2E7F0B5DE4657464E464546E0B593B012
:1028C00081468A46089209931CAB10CB1B789B4625
:1028D0001E9D219B9846002C03D1102342469A430B
:1028E00090468023DB0046461E4042461A4212D0E4
:1028F000002C22D000260EE03033D9B2771C0AAB70
:1029000099552900200001F00DF8AC4216D31F2F75
:1029100014D83E0004002900200001F003F8CBB2D7
:10292000092BE9D94246920605D54121C918C9B2F9
:102930000A39C9B2E2E76121F8E727004346069366
:10294000209B05931F9B049303955B46029301977D
:102950000AAB0093099B089A51464846FFF721FFAE
:1029600013B0F0BCBB46B246A946A046F0BDF0B5D8
:10297000DE4657464E464546E0B597B00A900B9165
:102980000C929A46209B9946219F22AA13789B4637
:10299000249B0993259C289B98464A463A4302D19A
:1029A0001032934398468022D20045461540434654
:1029B00013420AD04A463A4341D000252E005346DE
:1029C0000D934D46099B9A461BE02E0053460D93EE
:1029D0004D46099B9A4614E03033DAB2731C99468F
:1029E0000EAB9A55524623002800390000F0D8FF5C
:1029F000BC4226D819D04B461F2B1CD84E4605008A
:102A00000F00524623002800390000F0C9FFD3B25E
:102A1000092BE1D94246920605D54122D218D2B2FD
:102A20000A3AD2B2DAE76122F8E7AA45E3D94E467C
:102A30000D9B9A4608E04E460D9B9A4604E0002600
:102A400002E04E460D9B9A4643460693279B05930C
:102A5000269B0493099B03935B46029301960EAB5E
:102A6000009353460C9A0B990A98FFF79AFE17B0F9
:102A7000F0BCBB46B246A946A046F0BDF0B5DE4666
:102A800057464E464546E0B591B0804689460C9281
:102A90009A461A9C1B9D22002B002000290001F061
:102AA0000AFA002800D0ECE001225242D44B200068
:102AB000290001F0FBF9002800D0E2E00122524297
:102AC000D04B2000290001F0DBF9002800D0D8E02D
:102AD000002200232000290001F0D2F9002800D0B4
:102AE000E4E0069407958023DB001E9A1A400D92BD
:102AF0001E9A1A4201D106231C93069807990200D8
:102B00000B000892099303000A00024300D1D9E0A8
:102B1000080D4005400DBC4EB44660440A03120B3C
:102B20001E00BA4B13431F0001F0D8F9B84AB94B45
:102B300001F063F9B84AB94B01F038F908900991EE
:102B40000022B74B3000390001F027F9B54AB64BE7
:102B500001F053F902000B000898099901F026F9D9
:102B600001F0D4F9834601F0B9F906000F00AF4A2D
:102B7000AF4B01F042F90022AE4B01F017F901F022
:102B8000C5F90890AC4AAD4B3000390001F035F979
:102B900006000F00089801F0A1F9A94AA94B01F01D
:102BA0002CF902000B003000390001F0F6F80600A5
:102BB0000F0002000B0001F020F90A900B91089B16
:102BC000A14A9446634400210022089109921B0502
:102BD00009930023089332003B003000390001F0D4
:102BE000E5F80E900F9132003B0000208021C905CE
:102BF00001F0D3F806000F000022944B0A980B99BD
:102C000001F0DDF80022924B01F0D0F802000B0039
:102C10000A980B9901F0D3F800228E4B01F0C6F808
:102C200002000B000A980B9901F0C9F802000B0092
:102C30003000390001F0BAF802000B000E980F992D
:102C400001F0BDF80022714B01F0B0F8089A099B21
:102C500001F0D3F806000F0008960997069A079B23
:102C600001F024F900282FD001235B429C46E34465
:102C70000022774B3000390001F0A1F8089009914B
:102C800022E01E9B04931D9B03931C9B02930094C4
:102C9000019553460C9A4946404600F0FFF811B0A2
:102CA000F0BCBB46B246A946A046F0BD00210022BA
:102CB00006910792069480231B069C46AC4463460B
:102CC000079310E700239B465B466333C62B20D84F
:102CD00004261E9B1B0528D5089A099B1900114341
:102CE0000FD05D4A5D4B0698079901F0D7F8002890
:102CF0007AD000225A4B0698079901F0C1F80028B3
:102D000072D01C9B5B4506DD5A469B1A013B1C9307
:102D100003E00526DDE700231C938023DB001E9AD9
:102D20001A431E92002600239B461D9B9E4265D29D
:102D30009F1B02231E9A1A400A921E9A134202D027
:102D4000002E00D000275B46002B07D0089A099B75
:102D50000698079901F033F80690079100220023A6
:102D60002000290001F08CF8002800D07CE03D4BC9
:102D70001E9A1340049303971C9B0293069B079C87
:102D80000093019453460C9A4946404600F086F859
:102D9000002E00D183E71E9B9B0671D54525441C60
:102DA0005346020049462800C0475A46D317D21856
:102DB0005A4005230593013E0496002303930A33EA
:102DC00002935B46DB0F0193009253462200494673
:102DD0004046FFF76EFD0A9B002B00D15FE7020023
:102DE00047460C9E1D9D53E01C9B002B9DD00D9BC8
:102DF000002B9AD01C9B013B1C9396E7002798E779
:102E0000FFFFEF7FFFFFEFFF01FCFFFF0000F03F40
:102E1000FB799F501344D33FB3C8608B288AC63FC9
:102E20000000F83F61436F63A787D23F71A3790920
:102E30004F930A400000E03F1655B5BBB16B02400E
:102E4000EF39FAFE422EE63FFF03000000002C405F
:102E500000002440000018402D431CEBE2361A3FCE
:102E600080842E41FFF7FFFF069C079D220029006A
:102E700080200006844661440B000692079376E7A3
:102E800065258CE7541C534649462020B84722004C
:102E9000931BAB42F6D3100001E7C046F0B5DE4607
:102EA00057464E464546E0B595B006900791934685
:102EB0009946209F1E9A1F9B1000190000F0FBFFEF
:102EC000002831D101225242BF4B1E981F9900F0B9
:102ED000D7FF002837D101225242BC4B1E981F99C0
:102EE00000F0E4FF00283DD10022B94B1E981F9945
:102EF00000F0DCFF002850D10022B64B1E981F992D
:102F000000F0BEFF002848D1002200231E981F9920
:102F100000F0B6FF002850D100239846229B5B05A5
:102F200000D4B6E0002458E0229B0393219B029337
:102F300003230193A84B00934B465A4607990698E2
:102F4000FFF7D8FB0EE1229B0393219B02930423FE
:102F50000193A24B00934B465A4607990698FFF7F8
:102F6000C9FBFFE00423229A1A4022990B4210D099
:102F70009B4B002A0FD004222299039121990291A0
:102F8000019200934B465A4607990698FFF7B2FB09
:102F9000E8E0944BEDE70322EEE7229B0493219BAC
:102FA000039302971E9B1F9C009301944B465A4625
:102FB00007990698FFF762FDD4E01E9A1F9B002038
:102FC000002100F0EAFE1E901F9101239846A5E71C
:102FD0000CAB30221A55013F01341F2C01D8092FA8
:102FE000F6D81E981F9900F091FF050000F076FFBB
:102FF00002000B001E981F9900F0CFFE7A4BFA00DA
:103000009B181A685B680A920B9300F0F6FE089012
:10301000099100F09FFF060000F05CFF02000B002A
:103020000898099900F0B9FE0890099100226F4BA9
:1030300000F03CFF00282ED00136300000F04AFF9F
:1030400002000B000A980B9900F020FF002801D025
:1030500001350026002F2CD1280000F03FFF020090
:103060000B001E981F9900F098FE06000F0000222A
:103070005E4B00F005FF002846D100225B4B30007C
:10308000390000F013FF00283ED1EB073CD5013595
:103090003AE0062746E70022544B0898099900F0C9
:1030A000EFFE0028D6D1002E01D0F307D2D501368D
:1030B000D0E7AA461F2C11D8013F0A21300000F0AA
:1030C00031FC651C30310CAB19550A21300000F081
:1030D00029FC092E0ED906002C00EBE755461F2CC3
:1030E0000CD87B1E002F09D00CAA302111551F00CF
:1030F0000134F4E72B0055461C00F0E71F2C03D8E1
:103100000CAB2E221A5501341F2C10D80A2128008E
:1031100000F0E0FB661C30310CAB19550A21280089
:1031200000F0D8FB051E01D03400EDE73400032386
:10313000229A1340012B1CD01F2C06D84346002B8B
:1031400032D00CAB2D221A550134229B0393219BC4
:10315000029301940CAB00934B465A46079906988C
:10316000FFF7C8FA15B0F0BCBB46B246A946A04668
:10317000F0BD219B002B13D04346002B02D10C3312
:1031800013420FD0219B013B2193190003E00CABAC
:1031900030221A5501348C42CED21F2CF7D9CBE7FE
:1031A0002199F8E72199F6E7229B5B0704D50CAB40
:1031B0002B221A550134C8E7229B1B07C5D50CAB3F
:1031C00020221A550134C0E7FFFFEFFFFFFFEF7F1A
:1031D00065CDCD4165CDCDC1746900107869001011
:1031E0006869001070690010206B00100000E03F5B
:1031F000F0B5DE4657464E464546E0B593B08246AA
:10320000884693461193002900D106E300255646CF
:10321000119B1878002800D102E3252809D06C1CE6
:103220005B462A004146B047119B013311932500AC
:10323000EEE701331193002720E001231F43013201
:103240001192012418E002231F430132119201243C
:1032500012E004231F430132119201240CE00823E1
:103260001F4301321192012406E010231F43013253
:103270001192012400E00024002C09D0119A137847
:10328000203BD9B21029F6D88B00C449CB589F46B1
:10329000119B1A781300303BDBB2092B10D92A2A74
:1032A00013D00B94119B1A782E2A1ED0119A1378E2
:1032B000683BD9B2122959D88B00B949CB589F46DF
:1032C00011A8FFF705FA0B90ECE71C9B1A1D1C9246
:1032D0001B68002B04DB0B93119B01331193E1E777
:1032E000022217435B420B93F6E78022D20017437A
:1032F0005A1C11925A781300303BDBB2092B0BD9C0
:103300002A2AD3D11C9B1A1D1C921C68002C08DB96
:10331000119B01331193C9E711A8FFF7D9F90400F4
:10332000C4E70024F4E780235B003B43511C119168
:1033300051786C2901D01F0018E0C0239B001F4367
:103340000232119212E080233B43511C11915178BB
:10335000682901D01F0009E0C0231F4302321192E7
:1033600004E080235B001F4301321192119B187807
:10337000672816D8252826D30300253BDAB2422A2F
:1033800021D89300874AD3589F4680239B001F4330
:1033900001321192EAE780235B001F430132119250
:1033A000E4E778280FD869280DD30200693AD2B231
:1033B000012393407C4A13420FD11A0600D507E23D
:1033C0005B0500D594E16C1C5B462A004146B04782
:1033D000119B0133119325001AE778280AD062283F
:1033E0003AD06F283BD058283CD010239F43063B4F
:1033F0009C4601E010239C46582836D0692803D00B
:10340000642801D00C2297437A0501D50122974305
:1034100069282DD064282BD0BA0500D5A2E0FA0582
:1034200000D5C3E07A0600D4D5E01C9A111D1C918A
:103430001168FF220A4005970B9B0493039463468F
:1034400002930023019300925B462A00414630001C
:10345000FFF72FFA05002AE002239C46CCE7082359
:103460009C46C9E710239C46C6E720221743C5E7C0
:10347000BA0520D4FA0550D47A0666D51C9A111DD7
:103480001C911168FF220A40D0171118414005977E
:103490000B9B0493039463460293D20F0192009115
:1034A0005B462A0041463000FFF703FA0500119BF6
:1034B00001331193ACE61C9A073207218A431100AD
:1034C00008311C91116853689946DB170C930D93D2
:1034D0000C9A0D9B100048400E904A4653400F93A3
:1034E0000E980F990C9A0D9B801A99410E900F918E
:1034F00008970B9B07930694634604930023059358
:103500004B46DA0F0292009001915B462A00414639
:103510003000FFF72CFA0500C9E71C9A111D1C9119
:103520001268D0171118414005970B9B0493039420
:1035300063460293D20F019200915B462A004146F6
:103540003000FFF7B6F90500B1E73A0605D51C9A39
:10355000111D1C910023D25E96E71C9A111D1C912F
:10356000126891E71C9A073207218A43110008313B
:103570001C9108970B9B07930694634604930023C2
:103580000593029353681268009201935B462A00E8
:1035900041463000FFF7EBF9050088E7806900102D
:1035A000C4690010106A0010419000001C9A111D9F
:1035B0001C9105970B9B049303946346029300238D
:1035C0000193136800935B462A0041463000FFF7E1
:1035D00070F905006BE73A0606D51C9A111D1C917F
:1035E00012681204120C26E71C9A111D1C91126815
:1035F00021E7462819D01C9B0733072293431A0062
:1036000008321C9204970B9A039202941A685B6822
:10361000009201935B462A0041463000FFF73EFCD2
:103620000500119B01331193F2E520231F43E2E7CC
:10363000672801D0472802D180231B011F4345285A
:1036400001D0472801D120231F431C9B07330722A9
:1036500093431A0008321C9204970B9A0392029427
:103660001A685B68009201935B462A00414630006D
:10367000FFF704FA0500119B01331193C8E50223FB
:103680001A003A4091463B421DD001241C9B1A1D52
:103690001C926F1C18785B462A004146B0474B4687
:1036A000002B14D1119B013311933D00B0E5571C41
:1036B0005B4641462020B04723003A005C1C9D42F7
:1036C000F5D81500E2E701232A000B9DF6E73A0042
:1036D000B1460B9E06E0571C5B4641462020C8477A
:1036E0002C003A00651CA642F5D817004E46D9E7D3
:1036F0001C9B1A1D1C921B689A46002C25D1012286
:103700005242534601E001330A001978002902D0E1
:10371000511E002AF7D152469B1A8022D20039004E
:1037200011408946174202D0A34200D92300022249
:103730001100394010913A4209D02A00250057461D
:103740009A4633004E46994621E02200D9E72A00E6
:103750004546A04606E0541C5B4629002020B047A1
:103760003B0022005F1C0B999942F4D84446A846BE
:103770003B00250057469A4633004E46994606E0E0
:103780001D000137541C5B464146C847220038786B
:10379000002804D0002EF4D06B1E002DF0D11500AF
:1037A00053464E46109A002A03D1119B01331193C0
:1037B0002EE50B9F2A0006E0551C5B464146202063
:1037C000B04723002A005C1C9F42F5D81500ECE7A7
:1037D00021233B431C9A111D1C9112680593082359
:1037E00004930394083302930023019300925B46F1
:1037F0002A0041463000FFF75CF80500119B0133B9
:10380000119305E56C1C5B462A0041462520B04714
:10381000119B013311932500FAE40B4B9A46F5E412
:10382000B2465D450DD35B465A1E5B4641460020BD
:10383000D047280013B0F0BCBB46B246A946A0460C
:10384000F0BD2A00F1E7C046C126001000B585B0E2
:103850000290039101210448009313004A4202A9F7
:10386000FFF7C6FC05B000BDC326001001480421C7
:10387000014B1847700400209D38001010B501005E
:1038800018231B8814221088984710BD10B501001A
:1038900018231B8816221088984710BDF0B5C6461D
:1038A00000B507000E0000250123984600E0013511
:1038B000B5420AD2AC003C192068FFF7DFFF206058
:1038C0000028F4D100239846F1E7404680BCB84672
:1038D000F0BD0000124A936F9B0815D29066D16626
:1038E000002905D0FFE7FFE7FFE7516F106F704732
:1038F00004B580210906C2175140002800D0C843F2
:1039000002F06EF9002104BDF0B5146E556E576FCC
:10391000166FFFF7E3FF1466556657671667F0BD2D
:10392000000000D0114A936F9B0813D210665166B5
:10393000002905D0FFE7FFE7FFE7516F106F7047E1
:1039400004B5002801D00020C04302F049F900214D
:1039500004BDC046F0B5146E556E576F166FFFF775
:10396000E5FF1466556657671667F0BD000000D086
:1039700094464A4A926F9208624601D228E0C046B5
:10398000F0B5464E346E756E776F366F00F020F8E6
:103990009446424A14665566576716676246F0BDFC
:1039A00094463E4A926F9208624601D254E0C04665
:1039B000F0B53A4E346E756E776F366F00F04CF896
:1039C0009446364A14665566576716676246F0BDD8
:1039D000002B24DB11D000293EDA00B5C943404258
:1039E00000D1013100F038F8C943404200D1013123
:1039F000DB43524200D1013300BD002AEBD1002845
:103A000001D1002905D00020C90FC90701D1C04349
:103A1000410800B502F0DCF80022002300BD00B52B
:103A200000290ADBDB43524200D1013300F014F8D5
:103A3000C943404200D1013100BDC943404200D1D9
:103A40000131DB43524200D1013300F005F8DB4382
:103A5000524200D1013300BD002923D1002B18D1DF
:103A6000002A0CD0BC460D4F38667A660021002330
:103A7000FFE7FFE7FFE77A6F386F67467047002878
:103A800001D00748010000B502F0A2F8002200238F
:103A900000BD02000B00002000217047000000D094
:103AA000FFFFFFFF002B00D0BFE0130C28D1002A3E
:103AB000E7D080B4114F39667A66FFE7FFE730B48C
:103AC000040C7B6F396F1B0423433B667A66FFE768
:103AD000FFE7FFE7C04684B27B6F3D6F1B042343C3
:103AE0003B667A66FFE7FFE7C04600232C042D0CF7
:103AF0007A6F386F00196941B0BC7047000000D080
:103B0000F0B594460025140E01D112020835140FA9
:103B100001D112010435940F01D192000235D40F66
:103B200001D152000135D40B0134254F7C66254C60
:103B30003C660E0C93B2FFE7FFE7FFE73C6F66437E
:103B4000360C7703BE467343DF0B5B04C01AB941E2
:103B5000130C7343DB18C91ACE086643360CB644FF
:103B600093B273431F0F1B01C01AB941130C734367
:103B70001F0B1B05C01AB941860D8F023E436643D9
:103B8000360C092D24DB520A7243801A7703460A49
:103B90006643360C16235B1BDE40DF40BF196446CC
:103BA0006643821B7046043506330100D940A840A5
:103BB000C01900D30131A24206D20023F0BD00009B
:103BC000000000D0FFFFFFFF121B0130F3D3F1E72D
:103BD00009277F1BFE406446A2B27243801A00D2BE
:103BE0000139220C7243130C1204821A99410B0002
:103BF0007046043513370100F940A840801900D3FE
:103C00000131002B02D1A2420AD2F0BD013000D313
:103C10000131121BFAD2013BF8D1A24200D2F0BD11
:103C2000013000D30131121BF7E7F0B51C0C00D0B6
:103C300080E00CB400251C0A04D11B02160E33438D
:103C4000120208351C0B04D11B01160F334312015D
:103C500004359C0B04D19B00960F33439200023530
:103C6000DC0B02D192185B4101351C0097186441AE
:103C70000134464F7C66464C3C660E0CFFE7FFE77E
:103C8000FFE7C0463C6F6643360C7703BE4697B2EB
:103C90007743C01B00D20139C01B00D201399FB24B
:103CA0007743C91BC91B170C77437E04FF0B801B8E
:103CB000B941CE086643360C0C2D33DBB644120BEB
:103CC0001F053A431B0B97B27743C01B00D2013943
:103CD0009FB27743C91B170C77433E043F0C801BF0
:103CE000B941860D8F023E43664329277F1BFE4064
:103CF0000C3D7746AF40BF1930BCA2B2ABB27243A5
:103D00007343801A9941220C7243130C1204801AD7
:103D1000994102000B000137001BA941F9D2781E1E
:103D20000021F0BD0C277F1BFE4077467F0BAF4084
:103D3000FF19E0E700245D1C07D0144F7D6639664B
:103D4000FFE7FFE7FFE7FFE73C6F95B29EB26543F1
:103D50006643401BB141150C1E0C65436643360497
:103D60002F0C3E432D04401BB141994204D2020066
:103D70000B0020000021F0BD01D19042F7D3801A42
:103D8000994101349942F2D3F6E70000000000D0D7
:103D9000FFFFFFFF48404140484018B41B4B5B68A1
:103DA000FC46019308BD04DF8B40001018B4174B8C
:103DB0001B68FC46019308BD00DF95400010944647
:103DC000134A926F920809D2624618B40F4BDB680F
:103DD000FC46019308BD0CDF4D4300100C4AF0B5C2
:103DE000146E556E576F166F6246FFF7EEFF084A66
:103DF0001466556657671667F0BD18B4034B9B6889
:103E0000FC46019308BD08DFF1410010480F002077
:103E1000000000D0FFB550404240504059404B4058
:103E2000594000E0FFB5154F4C00640D03D0BC4273
:103E300004D10C0314D80020090D09055C00640DA1
:103E400003D0BC4204D11C030AD800221B0D1B0561
:103E500001264B4009D44B4003D58B4200D182420E
:103E6000FFBD9942FCD19042FFBD0B43DB180343D9
:103E70001343F5D0C9434918FFBD0000FF070000F8
:103E800000B5FFF7CFFF804100BDC04600B5FFF78A
:103E9000C9FF01D9002000BD012000BD00B5FFF71A
:103EA000B9FF01D9002000BD012000BD00B5FFF71A
:103EB000B1FF804100BD012040054A00121804D81E
:103EC0005A00121801D800207047012070470020C6
:103ED000704700000021002805D17047C1174840F5
:103EE000401AFAD0C90713B5064B1B6898470CBC9B
:103EF000441CA2401005120B0349091B0905194374
:103F0000114310BD481000201F04000010B54C00E4
:103F1000620D8023D218DB00D21A5B057E2A10DDE9
:103F20009E3A13DACC170903490819435242D1408B
:103F3000640001341532202A05DAD040084360437A
:103F400010BD002010BD0846604310BDC80FC0184A
:103F5000013810BD18B4044B5B6AFC46019308BDE0
:103F600024DFFD4400100000480F002018B4044B6B
:103F7000DB6FFC46019308BD7CDF7D45001000002F
:103F8000480F002070B513231C78012C12D0012C8F
:103F900012DC214B214A93642148FFF76FFC214B2F
:103FA000186070BD1C491D4A9800815001331F2BB9
:103FB000F8D9ECE70023FAE71B48FFF767FC050098
:103FC0001A48FFF763FC023803789B007F2B09DD5A
:103FD00012488022290000F057FC022C08D0022C45
:103FE000DADCD6E7124B134A13483221FEF7B8FA4F
:103FF000124B1A88B5231B029A4209D1104B1A881A
:10400000104B9A4204D1104B1A88104B9A42E6D0BA
:104010000020FEF73DFBC04651400010480F002035
:104020004C33000048100020534400005346000069
:10403000706B00100C6C0010C46B00105438000042
:10404000D8380000494600009C380000594600005E
:1040500007B56046002800D100BE01880A0A023078
:10406000DF2AFAD1C9B2820804D30288408800044A
:10407000104300E00068024A5050039007BD000062
:10408000480F00200FB403BC0CBCF0B50124E407BA
:10409000634000E0F0B50C0DCF0F661E3605891B9E
:1040A000640503D3C943404200D30131640D03D0FA
:1040B000661CF60A07D0E41B00207F00791C8907E4
:1040C0008912803C24031D0DDF0F6E1E36059B1BDD
:1040D0006D0503D3DB43524200D301336D0D03D092
:1040E0006E1CF60A07D0ED1B00227F007B1C9B078D
:1040F0009B12803D2D032F1B661B58D4A446202EF7
:1041000046DA20371400BC401D00BD40F240334168
:104110002A4380185941CB0F05D0C943C043002220
:1041200064425041514162464D0D28D10D0D07D1D9
:1041300000281FD0241940414941013A0D0DF9D002
:10414000640006D3013000D30131002C01D14008B6
:104150004000013A0BD4941CE40A04D11205114426
:10416000DB071944F0BDD907204B194300E0D907FC
:104170000020F0BD0029DDD1002CDBD1F0BD0132E3
:10418000C6074008CD0728434908002EE1D0D9E7EB
:104190003C2E29DA203E40371400BC4000D00124D8
:1041A000F24014431A00BB401C43D317ACE7AC46A3
:1041B000202F08DA20360400B4400D00B540F84046
:1041C00039412843A5E73C2F0CDA203F4036040054
:1041D000B44000D00124F84004430800B1400C432F
:1041E000C117EAE710001900002494E70000F07FEF
:1041F000F0B50C0D661E3605891BE60A6405640DD4
:1042000002D0651CED0A04D0002001210905803C84
:104210002403A4461C0D671E3F05DB1BE70A64054B
:10422000640D02D0651CED0A04D0002201231B0599
:10423000803C24037740644497B484B296B27443BC
:10424000070C7E43150C6F4380B26843361802D3C7
:10425000012000043F183004350C00197D418446CC
:1042600088B29AB250430C0C62431F0C7C438EB24E
:104270007E43921902D301263604A4191604170CA2
:104280003618674101BC81B29AB25143040C6243B3
:104290001B0C5C4380B25843121802D30120000467
:1042A00024181004130C401863412D185E4100209F
:1042B000474106BC88B293B258430C0C6343120CBE
:1042C000544389B251435B1802D301210904641895
:1042D00019041A0C091862416D1856410020474113
:1042E00018BCF902720D1143F0026A0D1043ED0281
:1042F0000A0D03D16D1940414941013B124E9B1BF0
:104300007600B3420ED26D0007D301300026714112
:104310006646354301D1400840001B05C918E40733
:104320002144F0BD0BDA013306D1013004D1013153
:104330004F0D01D04908F2E7E1070020F0BD01363A
:1043400031050020EBE70000FF030000F0B51C0D75
:10435000671E3F05DB1BE70A6405640D02D0661C7F
:10436000F60A04D0002201231B05803C2403D0253B
:104370002D060026F6432E661E096E66CE0FF61930
:10438000B44649004F0D02D07E1CF60A03D000202F
:104390000021403F3F033E1BB600B444013F7F0570
:1043A000C91B49082E6F013676089C02950D2543DE
:1043B0007543ED137543AD1301356D10F603761B90
:1043C0000CB4CC02450D2C43A2B2B3B25A43270C15
:1043D0007B43350C6F43A4B26C431B1902D30124F9
:1043E00024043F191C041D0CA4187D4124196D419F
:1043F000009A91B2ACB26143170C7C432B0C5F4323
:1044000092B25A43A41802D301221204BF18220404
:10441000230C52187B41019C6C431B19520ED9018D
:104420000A434401A01A81B2B2B2514303145A4361
:10443000360C734387B27743D617D21900277E41D3
:1044400036049B191704160C7F185E417316ED187D
:10445000F301002680337541A90F06D16400690A73
:10446000E8055B0A184309D22FE004229444803304
:104470007541A90AA8059B0A184326D34041494122
:104480002404009A019B0D005543641B4343E41A26
:1044900095B286B27543170C7E43030C5F4392B20C
:1044A0005A43B61802D301221204BF183204330C47
:1044B00052197B4152429C41002C02D4002201300F
:1044C00051414008CA071043490802B06246D70765
:1044D0009210084BD218084B9A4203D21205891841
:1044E000C919F0BD0020002A01DC3900F0BD0133FC
:1044F0001905F5E7FD030000FE070000002200B5E6
:10450000203200F004F8080000BD000000220B1566
:104510000AD410B5944600F05FF81414013400DAA0
:104520000021CB17144C2047002000217047624423
:10453000343A0CD40C2A07DA0400914090405242DD
:104540002032D440214310BDD843D94310BD20327E
:1045500007D40C469440524220321141D0402043AF
:1045600010BD0800C917203203D452422032104136
:1045700010BD1800190010BD2F4500104A00520D43
:10458000144BD21A13DDFF2A1EDAD205CB0FDB073C
:104590001A43C300400F0903490A084310435B0054
:1045A00001D301D0013070474308FBD2704702D0DD
:1045B000C80FC00770470A0312130132F8D1420F27
:1045C000072AF5D1012200E0FF22C80F000280185F
:1045D000C0057047800300000A0DCC0F531E1B0559
:1045E000C91A520503D3C943404200D30131520DC9
:1045F00003D0531CDB0A07D0121B00206400611C8F
:1046000089078912803A1203014BD21A70470000C1
:10461000FF03000051434343C9188C46110C83B279
:104620004B4310B4040C614392B280B250436243D6
:104630001C041B0C001910BC59411304120CC018A7
:1046400051416144704700004840414048400023C8
:104650009C46114B5B68184700239C460E4B1B6819
:1046600018470E4A936F9B0804D200239C460A4BBE
:10467000DB681847F0B5146E556E576F166FFFF76D
:10468000F4FF064A1466556657671667F0BD0023A7
:104690009C46014B9B6818474C100020000000D03E
:1046A000491A002808D1084670470000C10FC90701
:1046B00000D54042002817D0F44603B40B4B1B68CA
:1046C000984706BC81409E384042803107D20B0695
:1046D00007D04900490AC00510430843604701302C
:1046E000F8E7490A8902F5E7704700004810002002
:1046F00000239C46014B5B6A184700004C100020C9
:1047000070B513231E782A48FFF7C0F80500012E64
:1047100011D0012E09DDAB1E1B789B007F2B40DDE5
:1047200024488022290000F0AFF82348FFF7A6F8BC
:10473000224B186070BD1F485422290000F0A4F8D5
:104740001F4B1A881F4B9A421CD1A7239B011A8822
:104750001D4B9A4216D11D4B1A881D4B9A4211D1FE
:104760001C4B1A8894239B019A420BD11A4B1A882E
:104770001A4B9A4206D11A4B1A681A4B9A4201D127
:10478000152307E01848FDF783FF184C094A9900E4
:104790008C5001331F2BF8D9144B064A1362D36196
:1047A000B7E7134B134A14484221FDF7D9FEC04620
:1047B000534600004C1000204C33000048100020ED
:1047C000EE290000C40F0000C20D0000962B00006F
:1047D000C0B50000182B0000CC2A000010B5000066
:1047E000FC2C000051ED8764485C0010FD47001070
:1047F000206C00109C6C0010546C001007B56046D3
:10480000002800D100BE01880A0A0230DF2AFAD14E
:10481000C9B2820804D3028840880004104300E033
:104820000068024A5050039007BD00004C10002061
:1048300010B5002804D04018034B984200D810BD92
:104840000248FDF725FFC04600000420B06C0010B0
:1048500070B5050000F0C2FC04002900FFF7E8FF76
:10486000200070BD10B500F0C3FC10BD014804214C
:10487000014B1847800400209D380010014B1B6835
:104880001847000080040020014B5B6818470000B7
:104890008004002010B50300080011001B68984731
:1048A00010BD0000F8B507000D001600437D002B79
:1048B00002D0002400200CE0036811002800984773
:1048C0002DE03B7D10E03B68154802219847601CB5
:1048D0000134B44214DA002CF3DD2B19013B1B78B0
:1048E0000D3B5A425341DBB22A5D0A2AF0D1002B1C
:1048F000EED1A042E7DA3B68211A28189847E2E790
:10490000B04203DA3B68311A28189847002E06DDBA
:10491000AD19013D2B780D3B5A4253413B75F8BD13
:10492000206D001070B505000368002B16D00C4BED
:104930001C6805E0290004C92000FFF7B3FF2469C3
:10494000002C09D02368002BF9D0064B1B68002BE4
:10495000F0D0A342F3D1EDE700232B6070BDC04639
:10496000E00D0020E80D002070B505000C000B687C
:10497000802B05D023685A1C2260E418257170BD75
:104980000800FFF7CFFFF5E710B5002B02DB026050
:10499000436010BD024B034A03483F21FDF7E0FD91
:1049A00040620010246D00105C62001010B582B0EF
:1049B0000400FDF78BF902000B006846FFF7E4FFE7
:1049C000009A019B22606360200002B010BD0000CD
:1049D00070B582B0060014001D00FA229200002378
:1049E00006980021FFF716FE02000B0012196B411A
:1049F000002B09DB6846FFF7C7FF009A019B326076
:104A00007360300002B070BD01225242004BF1E7EA
:104A1000FFFFFF7F30B585B004000D0002A8FFF74F
:104A2000C5FF029A039B00952000FFF7D1FF2000ED
:104A300005B030BD00B583B0FA2189006846FFF7A4
:104A4000E9FF009A019B024801F0D2F803B000BDD3
:104A5000D009002010B5024801F0B2F810BDC046E0
:104A6000D0090020F0B5CE46474680B583B0060099
:104A70000D0090461C00FFF7DDFF81466B1C05D042
:104A8000002C08D0194F1A4B1C6807E0300000F0CA
:104A900019FF0500F4E7174FF5E72469002C17D03C
:104AA0002368002BF9D0144B1B68002B01D0A342C4
:104AB000F3D12A0031002000B8474346002BECD048
:104AC0006B46D91D0A230B7001222000B847E4E78A
:104AD0004B46002B07D16B1E9D41E8B203B0C0BC12
:104AE000B946B046F0BDFFF7B5FFF4E795480010B2
:104AF000E00D0020A5480010E80D002010B5064B81
:104B00001C6801E098472469002C03D06368002BDF
:104B1000F8D1F8E710BDC046E00D002070B50500E3
:104B200000F0D0FE04000023012201002800FFF75E
:104B300099FFFFF7E3FF200070BD000070B5A2B041
:104B400004000E00FFF776FF0500002301930A48DA
:104B50003300220001A9FEF779FE040001A8FFF747
:104B6000E1FEFFF7CBFF002D02D1200022B070BD87
:104B7000FFF770FFF9E7C046694900100FB400B5B0
:104B800083B004A901C90191FFF7D8FF03B008BCA5
:104B900004B0184710B5024800F004F810BDC04634
:104BA000180E002070B588B0040004AD00260496ED
:104BB0000922002105A8FFF761FE009609220021C5
:104BC00001A8FFF75BFE4B232B700D2269462800DE
:104BD00000F0EEFF002304E05A1D69468A5CE254AF
:104BE0000133072BF8DD08B070BDF0B5DE4657463F
:104BF0004E464546E0B585B00700100098460EAB1E
:104C00001B7803930F9D109E3B680022DA663B6879
:104C100059603B680132DA6600220023994600247D
:104C2000C3464146029190462BE03A79002A31D0A2
:104C300001222FE00399002901D000212EE001215B
:104C40002CE03000A84703000443E4B2002B06D157
:104C50003A68526BD20602D4002DF2D1F6E7002B4F
:104C600009D13A6880215158894600291FD1002C6A
:104C70002FD1C2451ED0002C33D101229446E044EE
:104C80000198D8452DDA029A013A92464246002A06
:104C9000CBD000229202C245CCD0002149020A4367
:104CA000411C01910078396802430A61D4E7526DD2
:104CB00001240EE0039A002ADDD10AE03000A84763
:104CC00003000443E4B2002B06D13A68526B92050C
:104CD00002D4002DF2D1F6E7002BCCD13A68126E47
:104CE000C9E74246002C09D0002B15D14B46002BBA
:104CF00016D0DB0718D44B461B0709D5039B3B7125
:104D0000100005B0F0BCBB46B246A946A046F0BDB7
:104D100002235B421A00F1E701235B421A00EDE730
:104D200002235B421A00E9E702235B421A00E5E72F
:104D3000F0B5D6464F464646C0B505000C000520E6
:104D4000FDF73AFB0600600880192100FEF7EAFD36
:104D5000070043009946814405214846FEF7E2FDDD
:104D600080463B1A9A46284B9C4224D870008019F2
:104D70002649FEF7D7FD441C4346023BA34221D3FC
:104D80002B680022DA6629680B680432534002322D
:104D90001A4080235B010B431A602B685246DA618C
:104DA0002B6842461A624B464F2B11D95021484678
:104DB000FEF7B8FD0DE0700080191549FEF7B2FD51
:104DC000441CD9E7134B144A14485D21FDF7C8FB76
:104DD00001202A68A023D0502B681A007C32DB6F98
:104DE0005C402404240C80235B0113431C602B686B
:104DF0000122DA6639003000FEF794FDE0BCBA46C5
:104E0000B146A846F0BDC0463F420F0080969800CC
:104E100040787D01A46E0010006F0010C46E001079
:104E200010B5114B98421DD01022104B1A60104B38
:104E30001A60104B9B6814009C43231EF9D1047127
:104E40000268D46602686624FF3414600268D36383
:104E50000268936302688833633CFF3CD450FFF7D9
:104E600067FF10BD0822E0E79004002000E000404A
:104E700000F0004000C0004030B585B008AC257897
:104E80000024029401940095FFF7AFFE05B030BDF9
:104E900010B5040010220021FFF7F0FC80235B0214
:104EA0002360F8235B0263608023DB02A360C023DE
:104EB0001B03A360200010BD0523CB56002B01DB94
:104EC000934211D1094B9C46604443425841084BE0
:104ED0008000C058097901238B40013B9340184062
:104EE00043425841C0B270470020FCE70000D0AFF9
:104EF000600C002070B50A79202A19D8174B9C46FF
:104F0000604443425841164B8000C45801239340EB
:104F1000013B497949B2002910DB08002025AA1A73
:104F2000914218DC8B401C4201D00120404270BDF0
:104F30000C4B0D4A0D484021FDF712FB2020801A32
:104F4000002805DB1A0082401442F0D00138F7E750
:104F500001204042EBE701204042E8E70000D0AFEB
:104F6000600C0020146F0010B46F0010406F001030
:104F700070B505000C001600FFF79EFF002801D059
:104F8000002107E01648FDF783FB8B1912339B00C5
:104F90005A51013123798B4211D9227863781B024F
:104FA0001343A27812041A43E3781B0613434A0002
:104FB0009A5A80239B019A42E7D29219E5E701228F
:104FC0009A401300013B074A944665446A425541A2
:104FD0000549AD006A58B34013436B5070BDC046DD
:104FE0007C6F00100000D0AF600C002010B582B0C4
:104FF0000A4B9C466044434258418400E31C0848E5
:10500000084A00922200FBF7BAFE844202DC001B31
:1050100002B010BD01204042FAE7C0460000D0AF08
:1050200062110020906F001070B504000E00FBF7B5
:1050300077FE050031002000FFF75CFF441C631E73
:105040009C41E4B22800FBF777FE200070BD000011
:10505000F8B505000E00FBF763FE070031002800DD
:10506000FFF748FF041E09DB020031002800FFF7AC
:105070007FFF3800FBF760FE2000F8BD0148FDF718
:1050800007FBC0467C6F0010F0B5C64600B506AC05
:1050900025784C006618F60086193700DC373F6823
:1050A000BC46CC363668B0466418E400C8340419EF
:1050B0000434C026B60134438026B6022660002D93
:1050C00001D01F2614E0002612E05401A0256D0532
:1050D00025434C006418E40004192700DC373D60C8
:1050E000114D3543D8342560053B05321F2422403D
:1050F000052BEAD89B06520113434C006218D200DC
:1051000082181500DC352B60074B3343D83213600F
:1051100063462B606418E4000019CC3043460360FA
:1051200080BCB846F0BDC04680E0000070B584B0D9
:1051300004000D00160002680121A9408A430260A4
:10514000002B34D0186869004919C90061180A0099
:10515000C8321060586804321060986804321060D9
:10516000DB68DC310B606A005319DB00D033E318D5
:10517000802149010B438021090619601960164BF3
:10518000AB40A3602B1D01210800984080239B01A8
:105190002343186028000830814019601F233340E2
:1051A0005219D200A418D834236004B070BD6846E8
:1051B000FFF76EFE00996B005B19DB00E3181A0025
:1051C000C8321160019904321160029904321160F1
:1051D000039ADC331A60C6E70101010110B5034BE5
:1051E0000100186800F00EF810BDC046A8080020A5
:1051F00010B5034B0100186800F0ECFB10BDC04671
:10520000A8080020F0B54E464546DE465746E0B5B4
:105210000D000B35060085B0162D27D8102900D9B2
:10522000DAE000F0D1FA102518230221C74FFB184D
:105230001A005C68083A944200D146E10322636890
:10524000A1689343E268CA6091600121E3185A683B
:1052500030000A435A6000F0BFFA2000083005B061
:10526000F0BCBB46B246A946A046F0BD07239D430D
:1052700000D5B1E0A94200D9AEE000F0A5FAFC23C8
:105280005B009D4200D29AE1690A00D1A8E004299E
:1052900000D94FE138239846A90988443931CB0019
:1052A000082252429446A94FFB189C446346DC688E
:1052B000A44514D0032399460B0061469C4607E0A1
:1052C000E068002A00DBFAE0814200D1FBE0040044
:1052D0004A46636893435A1B0F2AF1DD41463A0060
:1052E0003C690832944200D1D8E0032063688343CC
:1052F000581B0F2800DD66E13A617A610028A4DAC4
:105300007A68904680229200934200D3E3E0DA0864
:10531000580901238340404618438046D300DB19D7
:105320009A687860E360A2609C60D46001208B1072
:10533000984040455CD8434603420AD10323994331
:10534000434640000431034203D14000043103428C
:10535000FBD00323B3469C460E00B8460190F000F4
:1053600040440100B246CB680BE064465A681F0017
:10537000A243DB68541B0F2C00DDF3E0002C00DBA4
:105380000DE19942F1D101239946CA4453460831AF
:105390009B07E8D1032205E003680838013E8342F9
:1053A00000D00AE23242F7D14346019A5B68934348
:1053B00042465360019A520001929A4216D8002A3E
:1053C00006D113E004229146019ACA445200019288
:1053D0001342F7D05646C2E70C23002033603EE765
:1053E00080233F22402190469B0059E75E46474676
:1053F0000322BC68636893439946AB4202D35B1BAC
:105400000F2B4EDC23004B440293514B08201B68AA
:1054100010335B19019300F0FFF94E4903900B68BC
:105420008B46013306D08446019B4242013B6344D4
:10543000134001933000019900F0D6F90300804633
:10544000013300D1DDE0029B834200D9D7E0019A0D
:10545000414B944619689A466144039A1960029B2D
:105460000800013A434500D0EAE04346134200D029
:10547000E6E0BB68984663464B441A0001231A4392
:1054800043465A60354B1868884200D21960344B45
:105490001868884200D219604446B4E07B68984698
:1054A00044E701222900134311436519616030006C
:1054B000BD606B6000F090F920000830CFE6A26874
:1054C000D0608260C1E6614609E7DC680231A34230
:1054D00000D104E7B2E65A0A042A00D888E0142A68
:1054E00000D90FE110005B3082465C32D200082008
:1054F00040428446BA189444624692680B30814612
:10550000944500D1E5E00800A2466146844602E0E9
:105510009268914204D04C465068A0439842F7D814
:10552000D368614654469C466346A260E3609C6033
:10553000D460FBE6142973D9542900D9EBE06E231B
:105540009846290B88446F31CB00A9E6A0040020BF
:10555000240B002098040020F40A00201C0B0020DB
:10556000200B0020BA4601205146844649190543C4
:1055700050464560856847466046EB605E469D60E4
:10558000534639617961204308374860CF60300065
:105590008F609C5000F020F9504608305FE6BA4614
:1055A00001205E465244516801435160BA683000A0
:1055B000D3609A6000F010F9380008304FE62B00F5
:1055C000E908083332E66119884601218C460D430B
:1055D0004146656039617961CA608A60624602430A
:1055E0004A60E050300000F0F7F82000083036E65E
:1055F0009A091000393238308246D20077E7BC422F
:1056000014D0BC68626803239A43531BAA4202D396
:105610000F2B00DD45E7300000F0DEF800201EE62D
:105620005B23984688445C31CB0039E6644B9A464C
:105630001868019B9C46534660441860039B5A1EA1
:105640005B461B68013371D0434602995B1A514691
:105650001B180B600723414640461940029118422F
:1056600040D00398013384465B1A01999844414421
:105670000191634411405B1A1A40110030009346B7
:1056800000F0B2F8431C78D04346C01A03005B44D4
:105690000193534619680120594419604346019A01
:1056A000BB6002435A60BC4200D1EBE64B460F2B75
:1056B00040D907220C3B93436268024005201A43FD
:1056C0006260E218506090600F2B4BD843465A68D6
:1056D000D8E653469810012383404046184380463D
:1056E000786021E7019B039943441340CB1A1A4089
:1056F00011003000934600F077F8431CC4D100231A
:105700009B46C6E7542A18D81A0B10006F326E3029
:105710008246D200EBE6AA235B00994218D8DD3B13
:105720009846E90B88447831CB00B9E55B464146A1
:1057300019608FE7434658606DE7AA204000824217
:1057400026D8DA0B1000783277308246D200CEE6C7
:105750001C4B994226D87C239846A90C88447D315D
:10576000CB009DE521003000083100F033F95346AD
:105770001968BB6898465A6884E6019A029B944669
:105780004246083B63449B1A019300239B4680E7F3
:105790000C4882420CD89A0C10007D327C30824634
:1057A000D200A4E6FE237E227F2190469B0077E56F
:1057B000FE227E209200824699E643465B68F9E528
:1057C000F40A00205405000010B5024800F076F8F5
:1057D00010BDC046F00A002010B5024800F070F875
:1057E00010BDC046F00A0020002370B5064C05002D
:1057F00008002360FCF794FE431C00D070BD2368B2
:10580000002BFBD02B60F9E7E40D0020014B18685A
:105810007047C046A8080020802310B55B01082807
:1058200001D1180010BDFFF7F1FF16230360173BED
:10583000F7E7C046024670B50A4392072AD11E4DCB
:10584000EE0104C808C9541B9443344017D0D0B2A9
:10585000D9B2401A2106014310D190B299B2401A30
:10586000210401430AD110021902000A090A401A50
:105870002102014302D1100E190E401A70BD9A4246
:10588000DFD010BA19BA884201D9012070BD0020BA
:10589000C04370BD02780B7801300131002A09D075
:1058A0009A4207D102780B7801300131002A01D0E9
:1058B0009A42EFD0D01A70BD010101017047C04675
:1058C0007047C04610B583070AD00300032102E0E9
:1058D00001330B4205D01A78002AF9D1181A10BDED
:1058E000030019680C4A0D4C8A188A4322420FD1D2
:1058F0005968094A04338A188A43224208D15968F0
:10590000054A04338A188A432242F1D000E0013369
:105910001A78002AFBD1E1E7FFFEFEFE808080803E
:10592000F0B5C646060000B508200D00FFF774FF6D
:1059300004003000FFF748FF234B210098469B6886
:105940005F6803239F4338001138401B0019FDF79F
:10595000E9FF451E6543AC4208DC00213000FFF73B
:1059600043FF43469B68DB19984206D03000FFF79F
:1059700033FF002080BCB846F0BD30006942FFF71D
:1059800033FF01300ED0012243467F1B9B68174333
:105990000E4A5F60136830005B1B1360FFF71CFF4B
:1059A0000120E7E700213000FFF71EFF43469A6819
:1059B000831A0F2BDADD064C04492468001B0860AB
:1059C00001210B435360D1E7A0040020F40A00201A
:1059D00098040020F8B5CE46474605000C0080B577
:1059E000002957D0FFF7F0FE012321009C4608391B
:1059F00048686246030003249343CF187A68654ED3
:105A0000A243B468BC4200D170E0BC18A146644611
:105A10007A60044221D10868091A1B1888688046F8
:105A2000484640682040340008348146A04551D0A3
:105A30004046CC68C460A0604846002811D19B183D
:105A40005548BA68824200D17FE0F868D060826031
:105A500001221A434A60CB5007E048464068204282
:105A6000EDD062461A434A603B6080229200934226
:105A700014D2DA0858090123834070680343736025
:105A8000D3009B199A68CB608A609960D160280026
:105A9000FFF7A2FEC0BCB946B046F8BD5C0A042CB4
:105AA0003DD89C09200039343830E400341922688C
:105AB000083C0327944203D140E09268944203D00B
:105AC0005068B8439842F8D8D468CC608A60A16026
:105AD000D160DCE7002858D1B868D218FB68C360F1
